:100000000C94D3000C94FB000C94FB000C94FB00AC
:100010000C94FB000C94FB000C94FB000C94FB0074
:100020000C94FB000C94FB000C943E040C94AD0467
:100030000C94FB000C94FB000C94FB000C94FB0054
:100040000C94FB000C94FB000C94FB000C94FB0044
:100050000C94FB000C94FB000C94FB000C94DF064A
:100060000C94FB000C94FB000C94FB000C94FB0024
:100070000C94FB000C94FB000C94FB000C94FB0014
:100080000C94FB000C94FB000C94FB000C94FB0004
:100090000C94FB000C94FB000C94FB000C94FB00F4
:1000A0000C94FB000C94FB000C94FB000706050469
:1000B0000100080A0B0C0D090000000200090F00E6
:1000C00000030401000C000000000000000000001C
:1000D00000000000000000080B00020202000009FE
:1000E00004000001020200000524001001052401A3
:1000F00001010424020605240600010705810310FE
:10010000004009040100020A000000070502024045
:1001100000000705830240000004030904120100E7
:1001200002EF020140412337800001010203014137
:10013000726475696E6F204C4C430041726475693E
:100140006E6F204D6963726F00000000002500286B
:10015000002B002E00310000000000240027002AA0
:10016000002D00300004040404040304050202020C
:100170000204030202020206060606060604040240
:100180000202040404080201104080401020408054
:1001900040800802040180402010020110801020DD
:1001A00040402000290711241FBECFEFDAE0DEBF58
:1001B000CDBF11E0A0E0B1E0E0E6F2E102C00590C1
:1001C0000D92A632B107D9F721E0A6E2B1E001C055
:1001D0001D92A539B207E1F710E0C3EDD0E004C0ED
:1001E0002197FE010E942809C23DD107C9F70E944C
:1001F0003E070C942E090C94000090E0FC01EC5793
:10020000FE4F24918B599E4FFC018491882399F0D5
:1002100090E0880F991FFC01E95AFE4FA591B49117
:10022000FC01E75BFE4F859194918FB7F894EC91B8
:10023000E22BEC938FBF0895FC01809194018823F9
:1002400011F13FB7F89482E08093E9002091F20029
:10025000822F90E01816190614F481E090E08823AC
:1002600039F0289A44E6409393014091F10040838D
:10027000222339F02091F200211103C02BE62093B4
:10028000E8003FBF08958FEF9FEF08952FB7F894D0
:1002900083E08093E9009091E800892F807295FFB8
:1002A00004C09091F20080E4891B2FBF08958091D3
:1002B0008B0181110DC082E08093870184E08093DF
:1002C000880110928A011092890181E080938B014C
:1002D00087E891E00895CF93DF931F92CDB7DEB703
:1002E0006983DC01ED91FC910280F381E02D41E016
:1002F00050E0BE016F5F7F4F09950F90DF91CF9166
:10030000089583E08093E9008091F200882319F03A
:100310008AE38093E80008950E94460190E00895E2
:10032000CF93DF931F92CDB7DEB7FC01848595850F
:1003300097FD08C02FEF3FEF358724870F90DF919F
:10034000CF910895CE0101960E941C01019719F4E6
:10035000898190E0F3CF8FEF9FEFF0CF0F931F9342
:10036000CF93DF931F92CDB7DEB78C01FC0184855C
:10037000958597FF0BC0CE0101960E941C01019745
:1003800071F4898190E0F80195878487F80184856C
:1003900095850F90DF91CF911F910F9108958FEF69
:1003A0009FEFF1CFFC018485958597FD0BC09FB72A
:1003B000F89482E08093E9008091F2009FBF90E082
:1003C000019608959FB7F89482E08093E9008091A8
:1003D000F2009FBF90E008954091310150913201A9
:1003E00020912F013091300142175307B4F49091BE
:1003F000E8009570E1F39091E80092FD19C08093B8
:10040000F100809131019091320101968F7399270B
:10041000892B19F48EEF8093E8008091310190913F
:1004200032010196909332018093310181E0089569
:1004300080E00895EF92FF920F931F93CF93DF9385
:10044000F82E192FE62E042F81E0860F880F0E94C8
:10045000EC0183E00E94EC01CF2DD12FEC0EFD2E9C
:10046000F11CCE15DF05B9F007FF13C0FE01849122
:100470000E94EC01182F80E00E94EC01812321965C
:100480008111EFCFDF91CF911F910F91FF90EF90EE
:1004900008958881EDCF81E0F5CFDF92EF92FF9252
:1004A0000F931F93CF93DF93D82E8A01EB017B012B
:1004B000E40EF51ECE15DF0559F0D7FE12C0FE0181
:1004C00084910E94EC0121968111F4CF0FEF1FEF70
:1004D000C801DF91CF911F910F91FF90EF90DF90B6
:1004E00008958881EECF0F931F93CF93DF931F92D0
:1004F000CDB7DEB782E0898342E450E067ED70E07B
:1005000080E80E944D020E945701DC0112960D9175
:100510001C910115110589F0D801ED91FC91028023
:10052000F381E02DBE016F5F7F4FC801099597FDF4
:1005300004C0F80100851185ECCF89810F90DF910F
:10054000CF911F910F910895615030F02091F100EB
:10055000FC0120830196F8CF289A84E680939301CA
:1005600008953FB7F89480912B0190912C01A091B0
:100570002D01B0912E0126B5A89B05C02F3F19F083
:100580000196A11DB11D3FBFBA2FA92F982F882713
:10059000BC01CD01620F711D811D911D42E0660FEE
:1005A000771F881F991F4A95D1F708958F929F92C0
:1005B000AF92BF92CF92DF92EF92FF926B017C01DC
:1005C0000E94B1024B015C01C114D104E104F104A9
:1005D000B9F00E94B102681979098A099B09683E3D
:1005E00073408105910580F321E0C21AD108E1082A
:1005F000F10888EE880E83E0981EA11CB11CE4CFA0
:10060000FF90EF90DF90CF90BF90AF909F908F9032
:1006100008958F929F92AF92BF92CF92DF92EF9206
:10062000FF920F931F93CF93DF936C017B018A019D
:1006300080910B01882309F45CC080919401882388
:1006400009F457C08091360180FF05C08091E00019
:1006500082608093E000E801B12C8AEFA82E93E03D
:10066000892E2AE3922E209711F4BB20D9F10E9403
:10067000460181110AC0AA94AA20D9F161E070E074
:1006800080E090E00E94D602EECF8C171D0611F09C
:100690000CF08C2F9FB7F8948092E9002091E8002D
:1006A00025FD02C09FBFDFCF282F30E0C21BD30B38
:1006B000F701815020F041914093F100FACFE20E12
:1006C000F31EBB2021F09092E800B12CEBCF80917B
:1006D000E80085FDE7CF9092E800BB24B394209713
:1006E00009F3F3CF5D9A84E6809335011016110665
:1006F0003CF081E090E0F6019383828310E000E01B
:10070000C801DF91CF911F910F91FF90EF90DF9083
:10071000CF90BF90AF909F908F9008950F931F93AD
:10072000CF93DF939B01823108F08251E82FF0E0F4
:10073000E455FF4FE49190917B008E2F880F880F36
:1007400080729F7D892B80937B00E770E064E0934B
:100750007C0080917A00806480937A0080917A0096
:1007600086FDFCCF60917800709179003327F90104
:10077000E854FF4F8491F901EC57FE4FC4912B5977
:100780003E4FF9012491222309F43FC08823E9F068
:1007900081508F30D0F4E82FF0E0EF52FC4F0C94F2
:1007A000280917041B04E0030F041304E503E50301
:1007B000E5031E04240428042C043204E503360453
:1007C000809180008F7780938000E22FF0E0EE0F21
:1007D000FF1FE75BFE4F05911491DFB7F894072EDA
:1007E000000C880B990B0E942F0820E030E040E8B5
:1007F0005EE30E9493080E94FE07D801EC9161110C
:100800003BC0C095CE23CC93DFBF6AE070E080E0B0
:1008100090E0DF91CF911F910F910C94D6028091BF
:1008200080008F7DD0CF80918000877FCCCF84B532
:100830008F7784BDCACF84B58F7DFBCF8091900028
:100840008F7780939000C1CF809190008F7DF9CFFA
:1008500080919000877FF5CF8091C0008F77809343
:10086000C000B3CF8091C0008F7DF9CF8091C200CE
:10087000877F8093C200A9CFCE2BC5CF1F920F9246
:100880000FB60F9211248F939F938091E100909166
:10089000E100937F9093E10083FF0FC01092E90085
:1008A00091E09093EB001092EC0092E39093ED00B6
:1008B0001092940198E09093F00082FF22C093E0A0
:1008C0009093E9009091F200992319F09AE39093A4
:1008D000E80090913501992341F0909135019150B4
:1008E00090933501911101C05D98909193019923E6
:1008F00041F090919301915090939301911101C017
:10090000289884FF18C08091E2008E7E81608093D9
:10091000E2008091E1008F7E8093E10080913601BA
:100920008E7E8061809336019F918F910F900FBED4
:100930000F901F90189580FFF7CF8091E2008E7E78
:1009400080618093E2008091E1008E7E8093E100DF
:10095000809136018E7E8160E5CF1F920F920FB697
:100960000F921124CF92DF92EF92FF920F931F9379
:100970002F933F934F935F936F937F938F939F93A7
:10098000AF93BF93EF93FF93CF93DF93CDB7DEB7D2
:100990006C97DEBFCDBF1092E9008091E80083FF25
:1009A00025C068E0CE0145960E94A40282EF8093A4
:1009B000E8008D8987FF39C09091E80090FFFCCF57
:1009C000982F907609F034C19E894F89588D2F89D0
:1009D000F88C911131C0803861F580913401809399
:1009E000F1001092F1008EEF8093E8006C960FB644
:1009F000F894DEBF0FBECDBFDF91CF91FF91EF9195
:100A0000BF91AF919F918F917F916F915F914F9126
:100A10003F912F911F910F91FF90EF90DF90CF901A
:100A20000F900FBE0F901F9018959EEF9093E800C7
:100A3000C7CF1092F100D5CF913059F48111D3CFA7
:100A40004130510581F6809134018D7F80933401CE
:100A5000CACF933049F48111C6CF4130510519F600
:100A6000809134018260F2CF953041F48091E800AA
:100A700080FFFCCF20682093E300B5CF963009F0CB
:100A8000A9C00B8D1C8D22E01092E900109232015A
:100A900010923101F2122EC01092300110922F01EB
:100AA0000E9473021F8299E09983FA8291E09E83EB
:100AB00090EA98879AEF998720913101309132011D
:100AC000275F3F4F3C832B838D831092E900109268
:100AD0003201109231011093300100932F0149E04F
:100AE00050E0BE016F5F7F4F80E00E944D020E9488
:100AF000730279CF1093300100932F010E945701A8
:100B0000DC0112960D911C910115110509F451C1DA
:100B1000D801ED91FC910480F581E02DBE016B5E62
:100B20007F4FC8010995009709F03EC1F801008583
:100B30001185EACFF3E0FF120EC08F89882309F4F4
:100B400040C0823061F440E86DE08BE391E00E94A8
:100B50001A02811148CF81E28093EB0047CF8130A8
:100B600029F440E86BE08FE291E0F1CF833099F710
:100B70000E945701DC011296ED90FC908E010F5FF0
:100B80001F4F6801E114F10479F0D701ED91FC9158
:100B90000680F781E02DB801C7010995080F111DE6
:100BA000F701E084F184EECFD8011C92F6010190A8
:100BB0000020E9F73197BF016C197D0940E0C601BB
:100BC000C6CF69E171E0FB01449150E080E80E94EA
:100BD0004D0209CF973009F4BECF983021F481E05F
:100BE0008093F10000CF993009F0FDCE837009F0B9
:100BF000B2CFEDE0F1E081E031E096E321912223F4
:100C000071F08093E9003093EB00DF0111972C9194
:100C10002093EC009093ED008F5F873079F78EE79B
:100C20008093EA001092EA008F8980939401DBCED2
:100C30008B8D9C8D1092E90010923201109231013F
:100C40009093300180932F01898D811192C08E89FC
:100C50009D89913A49F4813209F07DCF47E050E017
:100C600064E071E080E0B3CF913209F074CF833259
:100C700069F48F89988DB0E0A0E080930001909393
:100C80000101A0930201B0930301ADCE803269F45B
:100C90008091E80082FFFCCF67E084E091E00E9451
:100CA000A4028BEF8093E8009ECE823209F09BCEA7
:100CB0008F8980930B01EEEFFFE7859194918B3F35
:100CC0009C4D51F1E0E0F8E0809104019091050124
:100CD000A0910601B0910701803B9440A105B105A8
:100CE000F1F480910B0180FD1AC0EE3F8AE0F80715
:100CF00089F587E797E791838083809160008093EF
:100D0000330188E19BE00FB6F894A89580936000CA
:100D10000FBE9093600067CEEEEFFAE0D5CF8081F2
:100D200091818737974709F05ECEA8958091600042
:100D30008861809360008091330180936000EE3F72
:100D40002AE0F20789F08091FE0A9091FF0A9183D0
:100D5000808349CE808191818737980751F29093A3
:100D6000FF0A8093FE0AC5CF1092FF0A1092FE0A76
:100D70003ACE0E945701DC0112960D911C9101158B
:100D8000110509F4E8CED801ED91FC910190F081B4
:100D9000E02DBE016B5E7F4FC8010995811123CE06
:100DA000F80100851185EBCF181619060CF41BCE3F
:100DB000D2CEF1E0FF12BECE6DE171E004CF1F9202
:100DC0000F920FB60F9211242F933F938F939F93FF
:100DD000AF93BF938091270190912801A0912901A1
:100DE000B0912A013091260123E0230F2D3758F5C9
:100DF0000196A11DB11D2093260180932701909398
:100E00002801A0932901B0932A0180912B01909190
:100E10002C01A0912D01B0912E010196A11DB11DB3
:100E200080932B0190932C01A0932D01B0932E0160
:100E3000BF91AF919F918F913F912F910F900FBED6
:100E40000F901F90189526E8230F0296A11DB11D43
:100E5000D2CFE7E3F1E01382128288EE93E0A0E0C4
:100E6000B0E084839583A683B78387E191E0918383
:100E700080838FEF9FEF958784870895789484B55A
:100E8000826084BD84B5816084BD85B5826085BD86
:100E900085B5816085BD80916E00816080936E0014
:100EA0001092810080918100826080938100809106
:100EB00081008160809381008091800081608093B7
:100EC00080008091910082608093910080919100D8
:100ED0008160809391008091900081608093900068
:100EE0008091C10084608093C1008091C1008260C4
:100EF0008093C1008091C10081608093C100809186
:100F0000C30081608093C3008091C00082608093A1
:100F1000C0008091C20081608093C20080917A00FD
:100F2000846080937A0080917A00826080937A0056
:100F300080917A00816080937A0080917A00806845
:100F400080937A001092940110923401109236012D
:100F50008091D70081608093D70080EA8093D80089
:100F600089B5806189BD89B5826089BD09B400FEFB
:100F7000FDCF61E070E080E090E00E94D6028091B9
:100F8000D8008F7C80618093D8008091E000807FC2
:100F90008093E0008091E1008E7E8093E1008DE0FF
:100FA0008093E200559A209A5D98289889E00E94E3
:100FB000FD008AE00E94FD008BE00E94FD0064E6D7
:100FC00070E080E090E00E94D602C0E0D0E069E0EE
:100FD00070E090E080E00E948E036AE070E081E0C3
:100FE00090E00E948E036BE070E082E090E00E944F
:100FF0008E03209761F30E940000E9CF0E947208DF
:1010000088F09F5798F0B92F9927B751B0F0E1F0C9
:10101000660F771F881F991F1AF0BA95C9F714C079
:10102000B13091F00E948C08B1E008950C948C08C6
:10103000672F782F8827B85F39F0B93FCCF38695B2
:1010400077956795B395D9F73EF49095809570950F
:1010500061957F4F8F4F9F4F0895E89409C097FB8C
:101060003EF490958095709561957F4F8F4F9F4F7F
:101070009923A9F0F92F96E9BB279395F6958795C3
:1010800077956795B795F111F8CFFAF4BB0F11F486
:1010900060FF1BC06F5F7F4F8F4F9F4F16C088232D
:1010A00011F096E911C0772321F09EE8872F762F63
:1010B00005C0662371F096E8862F70E060E02AF0A4
:1010C0009A95660F771F881FDAF7880F9695879590
:1010D00097F9089557FD9058440F551F59F05F3FF9
:1010E00071F04795880F97FB991F61F09F3F79F04A
:1010F00087950895121613061406551FF2CF4695CC
:10110000F1DF08C0161617061806991FF1CF86954D
:101110007105610508940895E894BB276627772731
:10112000CB0197F908950E94A6080C9417090E9414
:10113000090938F00E94100920F0952311F00C9451
:1011400000090C94060911240C948D080E946A0869
:1011500070F3959FC1F3950F50E0551F629FF0010A
:10116000729FBB27F00DB11D639FAA27F00DB11D23
:10117000AA1F649F6627B00DA11D661F829F2227AC
:10118000B00DA11D621F739FB00DA11D621F839F33
:10119000A00D611D221F749F3327A00D611D231F09
:1011A000849F600D211D822F762F6A2F11249F5757
:1011B00050409AF0F1F088234AF0EE0FFF1FBB1F5A
:1011C000661F771F881F91505040A9F79E3F510519
:1011D00080F00C9400090C948D085F3FE4F3983E76
:1011E000D4F3869577956795B795F795E7959F5FC3
:1011F000C1F7FE2B880F911D9695879597F9089555
:1012000097F99F6780E870E060E008959FEF80ECB9
:10121000089500240A94161617061806090608955C
:1012200000240A9412161306140605060895092EC2
:101230000394000C11F4882352F0BB0F40F4BF2B31
:1012400011F460FF04C06F5F7F4F8F4F9F4F089571
:10125000EE0FFF1F0590F491E02D0994F894FFCF55
:10126000FFFFFFFF00E100000000000000C18081DF
:10127000000000000000006B0109038C018101D215
:06128000019001AE010027
:00000001FF
